:400000000080002011000000D10C0000D10C000008B5044B1A6803F53F5302331A6000F077FE00BFFA46004010B5054C237833B9044B13B10448AFF300800123237010BD48
:400040008081FF1F00000000EC4A0000084B10B51BB108490848AFF300800848036803B910BD074B002BFBD0BDE81040184700BF000000008481FF1FEC4A0000C880FF1F26
:40008000000000002DE9F043ADF6D47D62B600F0A3FF00F00BFF00F0C1F94FF47A7000F093FE0DF11201002000F096F90FE00DF57C64904D0FCD0FC40FCD0FC42B68236035
:4000C0000DF57C6000F022FF642000F07DFE00F0FBFE0028EBD0884B186842685368013B5360002B04DA416802F0E2FAC0B204E042681368591C116018788DF8120000F0B7
:4001000027F9002426467D4D29E001F0CBF90128FBD0A0000DF5FE6708AB1918384400F083F957F82420954200D91546964200D2164673490DF57C6002F0E6FA0DF57C60D2
:4001400000F0E4FE08AB53F824206E490DF57C6002F0DAFA0DF57C6000F0D8FE0134B4F5FA7FD2DB0DF11303029305AB01930DF11B03009307AB0DF5FE624FF4FA7108A85A
:4001800000F05EFA0025642300275C4E15E0A3F164020DF5FE6151F8230041F8220008A850F8234040F8224051F82320964200D91646974200D217460133B3F5FA7FE6DBB7
:4001C0004FF4C87481E0631E0DF5FE6252F8239001F068F90128FBD0A0000DF5FE6808AB1918404400F020F958F82480C14513D2C9EB080001F0DEFB8146B81B01F0DAFBBB
:400200000146484601F0E2FC3F4901F02BFC01F079FD2D1A18D514E0C8EB090001F0CAFB8146B81B01F0C6FB0146484601F0CEFC354901F017FC01F065FD0544FF2D02DC75
:4002400002E0002500E0FF25424630490DF57C6002F05AFA0DF57C6000F058FE08AB53F824202B490DF57C6002F04EFA0DF57C6000F04CFE059A27490DF57C6002F044FA27
:400280000DF57C6000F042FE9DF9132022490DF57C6002F039FA0DF57C6000F037FE079A1E490DF57C6002F02FFA0DF57C6000F02DFE9DF91B201A490DF57C6002F024FADA
:4002C0000DF57C6000F022FE0134B4F5FA7FFFF67AAF0DF11303029305AB01930DF11B03009307AB0DF5FE624FF4FA7108A800F0A7F948E7F04A00004081FF1FFFFF0300B4
:40030000144B0000204B000000007F432C4B0000384B0000404B0000484B0000584B0000644B000000B583B08DF804008DF805100023022201A9572000F0CAFF01F096F81C
:4003400010F0020FFAD0012003B05DF804FB00BF08B5C0210220FFF7E5FF0346D0B300210320FFF7DFFF0346A0B300210420FFF7D9FF034670B300210520FFF7D3FF0346CB
:4003800040B300210620FFF7CDFF034610B30F210820FFF7C7FF0346E0B103210920FFF7C1FF0346B0B127210A20FFF7BBFF034680B124210C20FFF7B5FF034650B1242154
:4003C0000D20FFF7AFFF034620B17F211020FFF7A9FF0346184608BD10B582B00C4602A901F8040D02230122572000F071FF01F03DF810F0020FFAD001231A4601A9572075
:4004000000F0CCFF01F032F810F0010FFAD09DF804302370012002B010BD00BF08B540210920FFF77FFF08BD30B583B005460C460020286008600DF10701FFF7CDFF0DF146
:4004400007010120FFF7C8FF02A9072301F8083D02230122572000F03BFF01F007F810F0020FFAD0012306226946572000F096FF00F0FCFF10F0010FFAD09DF800202B68CB
:4004800003EB02439DF8012003EB02239DF8022013442B609DF80320236803EB02439DF8042003EB02239DF80520134423602B68C3F311032B602368C3F3110323600120F0
:4004C00003B030BDF0B58446DDF814E000240C60012628E052F8267077451FDD06F18044013C52F82440A74202DC17E0013500E001257419A34203DD52F824008742F5D0DF
:4005000052F8240087420BDD0F680E2F0ADC7C1C0C604CF8276001352E4404E0013602E0264600E026465C1EA642D3DBF0BD00BF30B4012512E050F825402B4602E040F826
:400540002320013B002B06DD03F18042013A50F822209442F3DB40F8234001358D42EADB30BC7047F0B54FF0010E17E051F82E70734602E041F82340013B002B0ADD50F829
:40058000276003F18044013C51F8244050F82450AE42EFDC41F823700EF1010E9645E5DBF0BD00BFF8B504460D4610461E460A682146FFF7D7FF4FF0FF3022E000F1010CA3
:4005C000C5F800C0634619E04FEA830E54F82320B0F1FF3F02D054F8207001E04FF0FF37D21BB24202DC7742BA4206DA2A68571C2F6054F80E7044F8227001338B42E3DB61
:40060000604629688842D9DB2046FFF791FFF8BDF0B583B005460C461646089F0097FFF751FF099B324621462846FFF7BBFF22680A9B9342A8BF1346236003B0F0BD00BF08
:400640002DE9F04FBBB005460C4616460593DDF81481DDF818910023184603E055F8232010440133A342F9DBB0FBF4F0002306E055F82320121AC54941F823200133A34215
:40068000F6DB002115E0C14A52F82170481C52F820301F448B1C52F823303B44CF1C52F827209B1800D503339B10B84A42F821300146B1F5F87FE6DB00230BE0581CB34A33
:4006C00052F8201052F82370C91B02EB8302C2F8D0170346B3F5F77FF0DD00220FE0AB4901EB8200D0F8D077013201EB8201D1F8D0373B4403EBD3735B10C0F8D037B2F500
:40070000F77FECDB00211EE0A04A02EB8302D2F8D077C1EB030E9E4A32F81E2007FB1200013301E00B4600204A1D9342ECDB994B83FB0023C017C0EB6320944B03EB81036B
:40074000C3F8D0070131B1F5F47FEBDD00210B4609E08E4A02EB8302D2F8D027002AB8BF524211440133B3F5F77FF2DD8A4B83FB0123C917C1EBA313052202920822019292
:40078000009340F2EF13854A39A90CA8FFF740FFDDF8E4E0BEF1010F0FDC21E03AAB03EB810353F8B83C4A1E3AAF07EB820252F8B82C9B1A1844013101E0002001217145ED
:4007C000ECDB0EF1FF3E90FBFEF041F2707393FBF0F0C8F80000012389F8003000230FE06F4BC8F80030002389F80030F6E73AAA02EB830151F8B82C023241F8402C013368
:4008000039988342F3DB00230BE055F823105F4A42F8231056F8231002EB8302C2F8901F0133A342F1DB4FF000094C4624E03AAB03EB840353F8403C591DB1F5F77F1ADCE8
:40084000053B002B0FDC16E0504A52F82320954207DD06B100263AAD05EB840545F87C3C1546013302E04FF0807501268B42EBDB0EB909F1010901348442D8DBB9F1010F86
:4008800038DC474B059A13600023449A137002E13E4D55F821204C1C55F824301A44881C55F820301344CE1C55F826209B1800D503339B10354A42F8213002EB8103D3F8D5
:4008C000905F02EB8403D3F8903F1D4402EB8000D0F8903F2B4402EB8602D2F8902F9B1800D503339B10294A02EB8101C1F8903F214600E00021B1F5F87FC9DB002306E024
:400900003AAA02EB8302002142F8CC1C0133042BF6DD00230FE03AAA02EB830252F87C2CB2F5FA7F06DD1E4B059A13600023449A1370B0E001334B45EDDB4FF00008C4461F
:400940004746434673E05E1C3AAA02EB860252F87C4C3AAA02EB830353F87C5CC5EB040EBEF10A0F1EDC61E0084A52F82320914201DA98461146054A02EB8302D2F8902FDE
:40098000904201DA9C46104601330FE09C81FF1F784B0000ED9B5F72675719216C89FF1F19FCFFFF2B464FF07F410846A342DBDBDFF8F0A00AEB8403D3F8903F0AEB850268
:4009C000D2F8902FC2EB030BC5EB0C0303FB0BF393FBFEF313440AEB8C02D2F8902FD21A5AF824305AF825401B1BC5EB080505FB03F393FBFEFE04EB0E035AF82C40E31A9F
:400A000002FB01F2D21103FB00F3DB11002B0DDD042F0BDC52B1642101FB02F292FBF3F33AAA02EB870242F8CC3C0137334609F1FF32934287DB394607A8FFF779FD07EBB1
:400A4000D7777B10012B0EDD5A1E3AA901EB820252F8CC2C01EB830353F8CC3C134403EBD3735B1004E03AAA02EB830353F8CC3CDA1EB42A09D8094A134493F84030059A35
:400A800013600123449A137005E0054B059A13600023449A13703BB0BDE8F08F784B000019FCFFFF9C81FF1FFEE700BFF0B40022174611E050F82760F3B226F0FF0608E024
:400AC00001EB420511F812406D78A5550132013BDBB2002BF4D10137132FEBD9F0BC7047064B1B78DBB203F00701054A11701B09013213704422034B1A707047CF010049D8
:400B00006E5800407658004008B50A46002101F056F908BD38B51925234B1D80182202331A70022203F27E231A7008224FF040231A70032103F5007319701C4B1B78DBB206
:400B40001B490B701B4B1A8041F25122023B1A8000240CE0184B1B7803F0010343EA440404F003044FF4F07000F0A6FC013D0DB1032CEFD115B90320FFF796FF0F4B4FF473
:400B800080721A8007221A7000220D490A704820023108701A700222033B1A70094A137843F00103137038BD8040004008010049A1460040224200402542004004400040A6
:400BC00006400040A243004008B501F0EDF808BD38B572B6314A137843F00403137000240CE02F4D630019194A0011462A44084691882858FFF788FF0134E4B2092CF0D9BD
:400C000000240CE02648A20011194B000344B3F84420196CD86BFFF7D7FF0134E4B2012CF0D920494FF09040FFF740FF1E4A137843F0020313701032137843F00203137091
:400C40001A4C237843F040032370A2F58632513A137843F0100313700A2215491548FFF7B3FF082214491548FFF7AEFF144A137843F008031370134D61232B70FFF74AFFBE
:400C800081232B700122104B1A70FFF729FF0E2221460E48FFF798FF38BD00BFE8460040704C00005000004803500140A043004040030048C05100404C0300481251004012
:400CC000224300400048004004000840B043004008B501F03DF803680C2B00D1FEE7FEE708B5094B1A681044084BC31AB3F5007F02DC054B186005E001F02AF80C230360BA
:400D00004FF0FF32104608BDCC80FF1F2099FF1F08B5104E104D16E029686B68AC68002204E051F8040B43F8040B0432A242F8D1E868002203E0002143F8041B04328242AC
:400D4000F9D11035013E002EE6D101F007F8FFF799F9FEE701000000B04E000008B5104A104B1A60104A136843F40073136000230AE0032B03D80D4A52F8231000E00C49E7
:400D80000C4A42F8231001332F2BF2D90A4B1A780A4B1A70074A0A4B1A60FFF719FF08BD0004FA050CED00E014ED00E000000000D10C00000080FF1FBC760040C080FF1F56
:400DC00008ED00E001BE704710B5044605E0084B186800F071FBA4F50044B4F5004FF6D8034B586800FB04F000F066FB10BD00BFD080FF1F70B504460E46074B1D681F28B9
:400E000002D90020FFF7DEFF04F01F04103455F8240045F8246070BD08ED00E038B504460D46072902D90020FFF7CCFF1F2C02D90020FFF7C7FF04F01F0000F1604000F544
:400E400064406D01EDB2057038BD00BF7222074B1A700023064A137006215F3A117047211032117051321370704700BF886500408965004010B500F027FB04460A4A1378EF
:400E800043F0200313700132137843F0100313700232137843F01003137000F049F8204600F016FB10BD00BF9865004008B5054B1B7823B9FFF7CAFF0122024B1A70FFF7BE
:400EC000D9FF08BDFC98FF1F084B1B78DBB213F0200F06D0064A1078C0B213F01E0F02D17047002070470020704700BF6965004048650040034B1B7813F0040FFAD1024BAD
:400F0000187070476B6500404B65004038B5074B1B782BB938BDFFF7EDFF0134A4B201E005460024285D0028F5D138BDFC98FF1F054A137843F0010313701032137843F05C
:400F400001031370704700BFA243004010B50222114B1A7081220E3B1A70082202331A70042211331A70002401331C704FF400420A4B1A6007210F20FFF750FF08490F20D9
:400F8000FFF738FF1022074B1A70074B1C70074B1C70074B1C7010BDD649004080E100E0011000000899FF1F0E99FF1F1699FF1F0C99FF1F08B500F087FA064A137843F08E
:400FC000040313701032137843F00403137000F07FFA08BDA543004008B5074B1B7823B9FFF7B4FF0122044B1A70FFF7E3FF4FF40042024B1A6008BDFE98FF1F00E100E006
:4010000038B5A54B1C78A54B1B7813F0400F00F03A81E4B214F0010F00F01D819F4B1B78453B052B00F21481DFE813F006008200120112010600DF0004F0DF0504F00A049C
:40104000082C42D1954B1B78DBB2452B35D1944B1B7813F0FF0F10D0924B1B681B78DBB2914A137004228C4B1A7001228F4B1A7046228A4B1A702C46EDE08D4B1B7813F0F0
:40108000020F0DD08B4A137843F00A0313706022824B1A704FF40042874B1A602C46DAE0864A137843F0100313701022844B1A700422023B1A702C46CDE00022764B1A7021
:4010C0004A22764B1A702C46C5E00A2C2BD1794A137843F0A0031370754B1B7813F0020F14D06E4B1B7813F0080F01D0092300E00A23704A11780B4313706022674B1A70BC
:401100004FF400426C4B1A602C46A4E06B4A137843F0100313701022694B1A700422023B1A702C4697E00020FFF74CFE2C4692E014F0020F36D15D4B1A78D2B2584B1B7860
:40114000DBB29A4210D2594A1378DBB255490968CB5CDBB254490B7004214F4B197013780133DBB2137076E0514B1B7813F0020F0CD0504A137843F00A0313706022474B06
:401180001A704FF400424C4B1A6064E04B4A137843F0100313701022494B1A700422023B1A7058E0424B1B7813F0020F0CD0414A137843F09A0313706022384B1A704FF422
:4011C00000423D4B1A6046E03C4A137843F01003137010223A4B1A700422023B1A70354A137843F09003137035E0364A1378DBB2354908682C490978C9B2C154137801334A
:40120000DBB213701278D2B2304B1B78DBB29A4203D21022204B1A701DE0254B1B7813F0020F0CD0234A137843F00903137060221A4B1A704FF400421F4B1A600BE01F4A45
:40124000137843F0100313700022134B1A7002E00020FFF7B7FD14F0200F1CD00F4B1B7813F0080F01D0012300E00223114A11780B431370114A137803F0EF03137010220F
:40128000064B1A7038BD054B1B7813F0100F02D11022024B1A7038BDD74900400899FF1F0D99FF1F1899FF1FD84900400C99FF1F1499FF1F0E99FF1F80E100E0D649004082
:4012C000D94900401699FF1F1099FF1F1599FF1F002948D070B40C4626490978C9B2102906D12549097811F0080F11D1002112E020490978C9B260290CD14FF400451F4943
:401300000D601F4D297801F0F7012970002102E0012100E0022149BB4526164D2E700026184D2E70184D2A70184A1460184A1370134C227802F0FD0222704200D2B2154897
:40134000027013F0010F06D012220B4B1A700422023B1A7002E00122074B1A704FF400420D4B1A6002E0022108467047084670BC704700BF0899FF1FD949004080E200E07C
:401380000E99FF1F0C99FF1F0D99FF1F1899FF1F1499FF1FD849004000E100E000294AD070B40C4627490978C9B2102906D12649097811F0080F11D1002112E02149097808
:4013C000C9B260290CD14FF4004520490D60204D297801F0F7012970002102E0012100E0022159BB4926174D2E700026194D2E70194D2A70194A1460194A1370144C227890
:4014000002F0FE0222704200D2B242F001021548027013F0010F06D012220B4B1A700422023B1A7002E00122074B1A704FF400420D4B1A6002E0022108467047084670BCB8
:40144000704700BF0899FF1FD949004080E200E00E99FF1F1699FF1F1599FF1F1099FF1F1499FF1FD849004000E100E04FF40042084B1A60084B1878C0B2084B1B7813F0F1
:40148000400F01D040F004004FF40042044B1A60704700BF80E100E00E99FF1F0899FF1F00E100E0024B1878C0F3C000704700BFC1510040000000000230800803D000BF2A
:4014C00001380046FCD17047EFF3108072B6704780F31088704700BF81F0004102E000BF83F0004330B54FEA41044FEA430594EA050F08BF90EA020F1FBF54EA000C55EADF
:40150000020C7FEA645C7FEA655C00F0E2804FEA5454D4EB5555B8BF6D420CDD2C4480EA020281EA030382EA000083EA010180EA020281EA0303362D88BF30BD11F0004FAF
:401540004FEA01314FF4801C4CEA113102D0404261EB410113F0004F4FEA03334CEA133302D0524263EB430394EA050F00F0A780A4F10104D5F1200E0DDB02FA0EFC22FA4F
:4015800005F2801841F1000103FA0EF2801843FA05F359410EE0A5F120050EF1200E012A03FA0EFC28BF4CF0020C43FA05F3C01851EBE37101F0004507D54FF0000EDCF103
:4015C000000C7EEB00006EEB0101B1F5801F1BD3B1F5001F0CD349085FEA30004FEA3C0C04F101044FEA445212F5800F80F09A80BCF1004F08BF5FEA500C50F1000041EB3B
:40160000045141EA050130BD5FEA4C0C404141EB010111F4801FA4F10104E9D191F0000F04BF01460020B1FA81F308BF2033A3F10B03B3F120020CDA0C3208DD02F1140C78
:40164000C2F10C0201FA0CF021FA02F10CE002F11402D8BFC2F1200C01FA02F120FA0CFCDCBF41EA0C019040E41AA2BF01EB0451294330BD6FEA04041F3C1CDA0C340EDCB1
:4016800004F11404C4F1200220FA04F001FA02F340EA030021FA04F345EA030130BDC4F10C04C4F1200220FA02F001FA04F340EA0300294630BD21FA04F0294630BD94F0D7
:4016C000000F83F4801306BF81F480110134013D4EE77FEA645C18BF7FEA655C29D094EA050F08BF90EA020F05D054EA000C04BF1946104630BD91EA030F1EBF0021002028
:4017000030BD5FEA545C05D14000494128BF41F0004130BD14F580043CBF01F5801130BD01F0004545F0FE4141F470014FF0000030BD7FEA645C1ABF194610467FEA655C84
:401740001CBF0B46024650EA013406BF52EA033591EA030F41F4002130BD00BF90F0000F04BF0021704730B54FF4806404F132044FF000054FF0000150E700BF90F0000F54
:4017800004BF0021704730B54FF4806404F1320410F0004548BF40424FF000013EE700BF42004FEAE2014FEA31014FEA02701FBF12F07F4393F07F4F81F06051704792F0A3
:4017C000000F14BF93F07F4F704730B54FF4607401F0004521F0004120E700BF50EA010208BF704730B54FF000050AE050EA010208BF704730B511F0004502D5404261EB5C
:4018000041014FF4806404F132045FEA915C3FF4DCAE4FF003025FEADC0C18BF03325FEADC0C18BF033202EBDC02C2F1200300FA03FC20FA02F001FA03FE40EA0E0021FA6E
:4018400002F11444C1E600BF80F0004002E000BF81F0004142001FBF5FEA410392EA030F7FEA226C7FEA236C6AD04FEA1262D2EB1363C1BFD218414048404140B8BF5B4268
:40188000192B88BF704710F0004F40F4000020F07F4018BF404211F0004F41F4000121F07F4118BF494292EA030F3FD0A2F1010241FA03FC10EB0C00C3F1200301FA03F148
:4018C00000F0004302D5494260EB4000B0F5000F13D3B0F1807F06D340084FEA310102F10102FE2A51D2B1F1004F40EBC25008BF20F0010040EA03007047490040EB000063
:4019000010F4000FA2F10102EDD1B0FA80FCACF1080CB2EB0C0200FA0CF0AABF00EBC25052421843BCBFD0401843704792F0000F81F4000106BF80F400000132013BB5E78B
:401940004FEA41037FEA226C18BF7FEA236C21D092EA030F04D092F0000F08BF0846704790EA010F1CBF0020704712F07F4F04D1400028BF40F00040704712F100723CBFD5
:4019800000F50000704700F0004343F0FE4040F4000070477FEA226216BF08467FEA23630146420206BF5FEA412390EA010F40F4800070474FF0000304E000BF10F00043D3
:4019C00048BF40425FEA000C08BF704743F0964301464FF000001CE050EA010208BF70474FF000030AE000BF50EA010208BF704711F0004302D5404261EB41015FEA010C1B
:401A000002BF84460146002043F0B64308BFA3F18053A3F50003BCFA8CF2083AA3EBC25310DB01FA02FC634400FA02FCC2F12002BCF1004F20FA02F243EB020008BF20F03D
:401A40000100704702F1200201FA02FCC2F1200250EA4C0021FA02F243EB020008BF20EADC7070474FF0FF0C1CEAD0521EBF1CEAD15392EA0C0F93EA0C0F6FD01A4480EA83
:401A8000010C400218BF5FEA41211ED04FF0006343EA501043EA5111A0FB01310CF00040B1F5000F3EBF490041EAD3715B0040EA010062F17F02FD2A1DD8B3F1004F40EBA2
:401AC000C25008BF20F00100704790F0000F0CF0004C08BF49024CEA502040EA51207F3AC2BFD2F1FF0340EAC250704740F400004FF00003013A5DDC12F1190FDCBF00F089
:401B000000407047C2F10002410021FA02F1C2F1200200FA02FC5FEA310040F1000053EA4C0308BF20EADC70704792F0000F00F0004C02BF400010F4000F013AF9D040EAC3
:401B40000C0093F0000F01F0004C02BF490011F4000F013BF9D041EA0C018FE70CEAD15392EA0C0F18BF93EA0C0F0AD030F0004C18BF31F0004CD8D180EA010000F00040CB
:401B8000704790F0000F17BF90F0004F084691F0000F91F0004F14D092EA0C0F01D142020FD193EA0C0F03D14B0218BF084608D180EA010000F0004040F0FE4040F4000027
:401BC000704740F0FE4040F4400070474FF0FF0C1CEAD0521EBF1CEAD15392EA0C0F93EA0C0F69D0A2EB030280EA010C49024FEA402037D04FF0805343EA111143EA10130F
:401C00000CF000408B4238BF5B0042F17D024FF4000C8B4224BF5B1A40EA0C00B3EB510F24BFA3EB510340EA5C00B3EB910F24BFA3EB910340EA9C00B3EBD10F24BFA3EBAC
:401C4000D10340EADC001B0118BF5FEA1C1CE0D1FD2A3FF650AF8B4240EBC25008BF20F0010070470CF0004C4CEA50207F32C2BFD2F1FF0340EAC250704740F400004FF026
:401C80000003013A37E792F0000F00F0004C02BF400010F4000F013AF9D040EA0C0093F0000F01F0004C02BF490011F4000F013BF9D041EA0C0195E70CEAD15392EA0C0F56
:401CC00008D142027FF47DAF93EA0C0F7FF470AF084676E793EA0C0F04D14B023FF44CAF08466EE730F0004C18BF31F0004CCAD130F000427FF45CAF31F000437FF43CAFDB
:401D00005FE700BF4FEA4002B2F1FE4F0FD34FF09E03B3EB12620DD94FEA002343F0004310F0004F23FA02F018BF404270474FF00000704712F1610F01D1420205D110F0E4
:401D4000004008BF6FF0004070474FF000007047014B1868704700BF4081FF1F0E4B70B51E460E4C0025E41AA410A54204D056F8253098470135F8E703F088F8084B094C6F
:401D80001E46E41AA4100025A54204D056F8253098470135F8E770BD984E0000984E0000984E0000A04E000010B5431E0A44914204D011F8014B03F8014FF8E710BD034619
:401DC0000244934202D003F8011BFAE770472DE9F04788B0149F002B1E461299B8BF03F1004327F02007B6BF1E4600232D23462F1446109DDDF84CA00B7003D0452F03D1CA
:401E0000013501E0032300E0022307AA049206AA03928DE828042246334600F02DFD472F804602D1119BDB0728D5462F08EB050911D198F80030302B0AD1002200232046A5
:401E4000314602F0B3FD18B9C5F10105CAF80050DAF800309944002200232046314602F0A5FD08B9302202E0CDF81C9006E0079B994503D9591C07911A70F8E74046079BCF
:401E8000159AC8EB0303136008B0BDE8F087034673B50029B8BF494203F8022BB4BF2D222B22092942701ADD0DF1070216460A2591FBF5F405FB1411092C01F1300102F847
:401EC000011D2146F4DC3031541E02F8011CB4421A460AD214F8012B03F8012BF7E71A463024214402F8024B5970101A02B070BD2DE9F04F91B00C46DDF8688016461F469C
:401F0000054601F037FB03681846099300F020FC00230E93D8F800300A90073323F0070303F1080294F81890D4F800B0C8F80020D3E90023C4E91223D4F84CA0D4F8488072
:401F40002AF000430B934FF0FF32A74B40460B9902F05EFDA0B94FF0FF32A34B40460B9902F038FD60B9002200234046514602F027FD10B12D2384F843309C4B9C4A0AE03D
:401F8000424653464046514602F042FD002800F09281984B984AB9F1470F8CBF90469846032323612BF0040323604FF0000A3DE0B9F1670F00F08A81B9F1470F00F08681FC
:401FC00023600193636800210DF13302059002920093424653460691CDF81090CDF80CE02846FFF7F4FE09F0DF03472B804600F08481B9F1650F0D9900F28D8101394A4635
:4020000004F150000D91FFF742FF0E9A82468318012A236100F37C812268D10700F178819DF8333013B12D2384F84330009733460FAA2146284600F09FF9013002D14FF02C
:40204000FF3096E123685A0501D4236965E0B9F1650F40F2D580D4E912010022002302F0A5FC78B30123654A31462846B8470130E5D00E9B0D9A9A420BDB2368D80708D4BD
:4020800023689B0740F111814FF0000804F1190906E10A9B099A31462846B8470130CED04FF0000804F11A090E9B013B9845E7DA01234A4631462846B8470130BFD008F1BD
:4020C0000108F1E70D9B002B29DC01234B4A31462846B8470130B2D00D9B23B90E9B13B92368D907CCD50A9B099A31462846B8470130A4D04FF0000904F11A0A0D9B5B425B
:40210000994509DA0123524631462846B847013095D009F10109F1E70E9B4246A7E00E9AA36D9A42A8BF1A46002A914606DC4FF0000A29EAE97904F11A0B11E0134631463D
:4021400042462846B8470130F1D178E701235A4631462846B84701303FF471AF0AF1010AA36DC9EB03029245F0DB08EB03090D9A0E9B9A420FDB2368DA070CD40E9B0D9ACA
:402180009844C9EB08089B1A9845A8BF9846B8F1000F08DC0FE00A9B099A31462846B8470130EBD14BE743464A4631462846B84701303FF444AF4FF0000928EAE87804F1CF
:4021C0001A0A09E00123524631462846B84701303FF435AF09F101090D9A0E9B9B1AC8EB03039945EEDB4BE7FFFFEF7FC84C0000CC4C0000D04C0000D44C0000D84C000057
:402200000E9A012A01DCDB0738D50123424631462846B84701303FF412AF0A9B099A31462846B84701303FF40AAFD4E912010022002302F0BBFB20B14FF0000804F11A0914
:402240000EE00E9B08F10102013B19E001234A4631462846B84701303FF4F1AE08F101080E9B013B9845F1DB534604F1500231462846B84701307FF403AFE0E642460123DF
:4022800031462846B8470130EED1D8E601234A4631462846B84701303FF4D1AE08F10108E3680F9A9B1A9845F0DBE0680F9B9842B8BF18465DE062680EA8531C0DF1340EB1
:4022C0004BF480637FF474AE062201E012B90122626075E6002106910DF133018DE80C00236005904246CDF81090CDF80CE0029153462846FFF76BFD80460D9BD81C02DBBB
:40230000626893421DDDA9F102095FFA89F970E60133236184E6B9F1660F14D10029636807DD216113B92268D2071DD501330B4419E013B92268D00701D5023313E00123C2
:4023400011E04FF067090D9B0E9A934205DB22682361D10708D5013305E0002BD4BFC3F102030123134423610D9B4FF0000AA36556E611B0BDE8F08F2DE9F04791461F46C3
:402380000A698B6806469342B8BF1346C9F8003091F843200C46DDF8208012B10133C9F800302368990642BFD9F800300233C9F80030256815F0060510D104F1190A07E06B
:4023C0000123524639463046C04701301AD00135E368D9F800209B1A9D42F1DB94F843302268003318BF012392060FD5E118302081F843005A1C94F845102244023382F894
:40240000431003E04FF0FF30BDE8F08704F1430239463046C0470130F4D02268D9F80050E36802F00602042A08BF5D1B2269A3680CBF25EAE57500259342C4BF9B1AED1853
:402440004FF000091A344D4509D00123224639463046C0470130D5D009F10109F3E70020BDE8F0872DE9F04317460A7E85B06E2A984606460C460C9B01F1430E00F0AE8064
:4024800011D8632A22D009D8002A00F0BB80582A40F0CA8081F84520834955E0642A1ED0692A1CD0C0E0732A00F0B08009D86F2A2ED0702A40F0B8800A6842F020020A60A1
:4024C0003EE0752A24D0782A3AD0ADE01A6801F14205111D1960136884F84230A8E021681A6811F0800F02D0111D196008E011F0400F02F10401196002D0B2F9003000E055
:402500001368002B3CDA2D225B4284F8432037E021681A6811F0800F02D0111D196007E011F0400F02F10401196001D0138800E01368227E5C496F2A14BF0A2208221BE078
:4025400078225A4984F845202268186812F0800F00F104051D6003D1550601D5038800E00368D00744BF42F0200222601BB9226822F0200222601022002084F8430001E09A
:4025800049490A226568002DA56008DB206820F0040020602BB9002D7DD175460CE0002B79D07546B3FBF2F002FB1033CB5C05F8013D03460028F5D1082A0BD12368DA0747
:4025C00008D5236962689A42DEBF302305F8013C05F1FF35C5EB0E0323612EE008681A6810F0800F496903D0101D1860136808E010F0400F02F104001860136801D0198074
:4026000000E0196000232361754616E01A68111D1960156800216268284600F0B7FF08B1401B6060636804E004F1420584F8422001232361002384F84330CDF800803B4627
:4026400003AA21463046FFF797FE013002D14FF0FF3026E023692A4639463046C0470130F5D023689B0710D5002504F1190907E001234A4639463046C0470130E7D00135DC
:40268000E368039A9B1A9D42F2DBE068039B9842B8BF184605E00B7804F1420584F842308AE705B0BDE8F083DA4C0000EB4C000038B50C46054618B183690BB900F0B4FE6A
:4026C0000E4B9C4201D16C6808E00D4B9C4201D1AC6803E00B4B9C4208BFEC682146284601F048FC38B96368013B636023685A1C2260187838BD4FF0FF3038BD0C4D00003E
:402700002C4D00004C4D00000EB400B54FF402719CB0ADF814106FF00041049107914FF6FF711DAB02900690084853F8042BADF81610006802A9019301F01EFB029B0022CE
:402740001A701CB05DF804EB03B070474081FF1F034613F8012B002AFBD1181A013870472DE9F74F03690C6980469C427FDC013C01F114074FEA840E00F1140606EB0E0380
:4027800057F82450019356F824300135B3FBF5F507EB0E09C5B34FF0000A3846B446D34650F8043B9AB205FB02A21B0C4FEA124A05FB03A392B2C2EB0B0BBCF800204FEA0A
:4027C000134A5A441FFA83FBDCF800308145CBEB134303EB224392B242EA03424FEA234B4CF8042BDCD256F80E306BB9019B043B9E421A4602D3C8F8104005E01268043B53
:40280000002AF8D1013CF3E7404601F0DAF800282BDB304601354FF0000E57F8042B036891B2C1EB0E0E120C99B27144C2EB134303EB214389B24FEA234EB94541EA034363
:4028400040F8043BE9D256F8242006EB840362B9043B9E421A4602D3C8F8104005E01268043B002AF8D1013CF3E7284600E0002003B0BDE8F08F00002DE9F04F456A95B067
:402880008246219CCDE9022345B9102000F076FECAF82400456085600560C560DAF82430196859B15A68012393404A608B60504600F0AFFEDAF8243000221A60039BA04AB0
:4028C000002BBDBF01232360039B0023BCBF23F000430393DDF80C80A8BF236028F000431B0D1B0593421DD142F20F73209A1360029B43B9934A944BC8F31300002814BFB0
:402900001846104600E09048229B002B00F04685C37813B100F1080300E0C31C229A136000F03CBDDDE90245002200232046294602F03CF8074658B1209A01231360229B05
:40294000002B00F01E8581481860013800F026BD12AB019313AB009322462B46504601F0ABF8C8F30A56049056B1C5F3130343F07F51204641F44011A6F2FF3611971DE0C2
:40298000139B129E1E4406F23243202B0ADD029A06F21240C3F1400322FA00F008FA03F3184304E0C3F12000029B03FA00F0FEF7D5FE0123A1F1F871013E11930022644B9F
:4029C000FEF78EFD58A3D3E9002301F087FD58A3D3E90023FEF786FD044630460D46FEF7CDFE55A3D3E9002301F078FD02460B4620462946FEF776FD04460D4602F01EF82B
:402A00000022834600232046294601F0D9FF58B15846FEF7B3FE02460B462046294601F0C5FF08B90BF1FF3BBBF1160F0DD8DDE90223484901EBCB01D1E9000101F0DEFF10
:402A400030B10BF1FF3B002300E00123109300E01090129B9E1B731E079343BFC3F10008002307934FF00008BBF1000F06DB079BCDF82CB05B440793002705E00023CBEBA5
:402A80000808CBF100070B931E9B092B28D8052BC4BF043B1E931E9BC8BF0025A3F10203D8BF0125032B20D8DFE803F0060E0204012302E0012308E000230A931F9B002BA9
:402AC0001DDD9946059321E000230A931F9B0BEB030909F10103012B0593B8BF012315E0012500231E930A9501E001230A934FF0FF390022CDF8149012231F9206E04FF04E
:402B000001094B46CDF81490CDF87C90DAF8244000226260042101F114029A421CD86268490001326260F6E761436F63A787D23FB3C8608B288AC63FFB799F501344D33F26
:402B40000000F07FFC4C0000054D0000D94C00000000F83F784D00006168504600F024FDDAF8243020601B680693059B0E2B00F25B81002D00F05881DDE90234BBF1000FA5
:402B8000CDE90E3430DD9F4A0BF00F034FEA2B1502EBC303E80618CBCDE908340CD5DDE90E01994B05F00F05D3E9082301F0C0FD0324CDE9020100E00224934E6DB1E9071E
:402BC00008D5DDE90801D6E9002301F087FCCDE9080101346D100836F0E7DDE90823DDE9020101F0A5FD20E0CBF1000505B3DDE90E01844B05F00F0203EBC203D3E900234B
:402C000001F06CFCCDE902017F4E2D110023022455B1EA0705D5D6E9002301F05FFC013401236D100836F3E71BB1CDE9020100E00224109BE3B1DDE902560022734B28460B
:402C4000314601F0BDFE98B1059B8BB1B9F1000F40F3E6800BF1FF330893314600226C4B284601F03BFC0134CDE902014E4602E0059ECDF820B02046FEF780FDDDE90223AC
:402C800001F02CFC634B0022FEF72CFCA1F1507304460C931D46D6B9DDE9020100225E4BFEF71EFC22460C9BCDE9020101F0A6FE002840F03F820C99224601F10043DDE9BD
:402CC000020101F07DFE002840F02B82A8E00A9A4C4B711E002A49D003EBC103D3E9002300204E4901F024FD22462B46FEF7F8FBCDE90C01069CDDE9020101F09FFE0546A9
:402D0000FEF73CFD02460B46DDE90201FEF7E8FBDDE90C23303504F8015BCDE9020101F04FFE002840F01D83DDE9022300203749FEF7D6FBDDE90C2301F042FE002840F0BB
:402D4000D180069BE31AB3426ADADDE90C0100222F4B01F0C3FB0022CDE90C01DDE902012B4B01F0BBFBCDE90201C4E703EBC1012246D1E900012B4601F0B0FB069BCDE9A7
:402D80000C011D469C19DDE9020101F057FE0646FEF7F4FC02460B46DDE90201FEF7A0FB303605F8016BAC42CDE902014FF0000222D11A4BDDE90C01FEF794FB02460B46BD
:402DC000DDE9020101F01AFE002840F08B80DDE90C2300201149FEF783FB02460B46DDE9020101F0EDFDD8B114F8013C621E302B40F0B7821446F7E7054B01F06FFBCDE9D0
:402E00000201C0E7784D0000504E00000000F03F0000244000001C40000014400000E03FDDE90E34CDE90234139B002B7CDBBBF10E0F79DCAB4B03EBCB03D3E900671F9B52
:402E4000002B14DA059B002B11DC40F06C810022A54B3046394601F041FBDDE9022301F0C3FD059D2E46002840F05F8165E1069CDDE9028932463B464046494601F058FCBA
:402E800001F0DCFD0546FEF779FC32463B4601F025FB0B46024649464046FEF721FB05F1300E069B04F801EBC3EB040E059B73452DD102460B46FEF715FB8046894602467C
:402EC0000B463046394601F07BFD78B942464B463046394601F06AFD002800F04482EB0704D440E2DDF820B000E01C4614F8012C631E392A07D1069A9A42F6D106993022B2
:402F00000BF1010B0A701A7801321A702BE20022764B01F0E3FA002200238046894601F045FD0028A6D01EE20A9A002A2BD01E9A012A0ADC119A12B103F2334302E0129B5D
:402F4000C3F136033D46444613E0059B5D1EAF42BFBF0B9BEA1B9B180B93059BB6BF2F467D1B0025002BA7BF4446059BC3EB08040023079A01211A4450469844079200F0E3
:402F8000E7FB064602E03D4644460A9E5CB1079B002B08DDA342A8BF2346079AC3EB0808E41AD31A0793002F1DDD0A9BABB18DB131462A46504600F065FC049A014606468D
:402FC000504600F0CEFB04990890504600F021FB089B04937A1B06D000E03A460499504600F050FC04900121504600F0B1FB0B9B05465BB31A460146504600F043FC1E9B2B
:403000000546012B18DC029B83B9039BC3F3130373B9039B23F000473F0D3F054FB1079B08F1010801330793012702E0002700E0029F0B9B73B100E000272B6905EB83032F
:40304000186900F038FBC0F1200004E01E9B012BD9DD0B9F0120079B184410F01F0008D0C0F12003042B02DDC0F11C0002E006D018461C30079B8044034404440793B8F153
:40308000000F05DD42460499504600F049FC0490079B002B05DD29461A46504600F040FC0546109B23B32946049800F08AFC00281EDA00230A220499504600F0C1FA0A9B1C
:4030C0000BF1FF3B0490002B00F05F81314600230A22504600F0B4FAB9F1000F06463FDC3BE000BF784D00000000144000002440059B002B2BDC1E9B022B28DDDDF8149064
:40310000B9F1000F11D129464B460522504600F097FA01460546049800F053FC00280CDC03E0354600E000252E461F9B069C6FEA030B09E03546DDF820B0069B069A5C1CDD
:40314000312313700BF1010B05960026F7E00A9BDDF8149023B9069CB2E01E9B022BCFDC002C05DD31462246504600F0D9FB06469FB17168504600F017FA0446326906F1EA
:403180000C01023292000C30FEF70EFE01222146504600F0C5FB059000E00596029B069F03F00103079329460498FFF7D9FA3146044600F13008049800F003FC059A0290D2
:4031C0002946504600F019FCC36802463BB901460A90049800F0F5FB0A9A034600E00123114650460A9300F014FA0A9B53B91E9A42B9079A32B9B8F1390F2AD0029B002BE5
:403200001CDC1DE0029A002A04DB1BD11E9ACAB9079ABAB9002B13DD01220499504600F07FFB2946049000F0CCFB002803DC07D118F0010F04D0B8F1390F0AD004F1310860
:403240007C1C0CE0002B07F101040BDDB8F1390F03D139233B70013756E008F1010887F800806CE0069B2746E31A4B4504F8018C3BD000230A220499504600F0E1F9059B18
:4032800004909E424FF00A024FF000033146504604D100F0D5F90646059084E700F0D0F9002306460A220599504600F0C9F9059079E700230A220499504600F0C1F9049032
:4032C00029460498FFF74CFA069B00F1300804F8018BE31A4B45ECDB069B0596B9F1010FACBF4B4401331F46002601220499504600F016FB2946049000F063FB002803DC83
:4033000015D118F0010F12D03C4614F8013C621E392B09D1069B934204D10BF1010B3123069A02E01446F0E70133137007E03C4614F8013C621E302B01D11446F8E729460C
:40334000504600F066F9059B6BB12EB19E4203D03146504600F05DF90599504600F059F901E0DDF820B00499504600F052F90023209A23700BF101031360229B1BB11C6075
:4033800001E008480AE0069808E0B9F1000F3FF7E2AE1E9B022B7FF7DEAEB1E615B0BDE8F08F00BFD84C0000014900F0C5B800BF7D42000010B50446002303604360836052
:4033C00081814366C281036143618361194608225C30FEF7F4FC054B24626362044BA362044BE362044B236310BD00BFA5400000C7400000FF4000002341000070B56823D6
:403400004D1E5D430E4605F1740100F0FDFB044640B1002180E842000C30A06005F16802FEF7CDFC204670BD836910B5044633BB8364C3640365124B124A1B68826298428E
:4034400004BF0123836100F01FF86060204600F01BF8A060204600F017F80022E06004216068FFF7A7FF01220921A068FFF7A2FF02221221E068FFF79DFF0123A36110BDEF
:40348000C44C0000A9330000F8B51C4B07461E68B36913B93046FFF7C7FF4836B4687368013B04D4B4F90C507DB16834F8E733680BB13668F2E704213846FFF79FFF30604F
:4034C0000028F6D10C233B60F8BD4FF6FF73E3810123A38165662560A560656025616561A5610822294604F15C00FEF768FC6563A563A564E5642046F8BD00BFC44C000040
:403500002DE9F041884600F1480400268CB1A5686768013F0BD4AB89012B06D9B5F90E30013302D02846C04706436835F1E72468ECE73046BDE8F0812DE9F84380468946A6
:4035400000F14804002694B1A5686768013F0CD4AB89012B07D9B5F90E30013303D029464046C84706436835F0E72468EBE73046BDE8F883004870474481FF1F024B014649
:40358000186800F041BB00BF4081FF1F10B5C9B202449042034605D01C7801308C42F8D1184610BD002010BD70B5456A04460E463DB91020FFF7E2FF6062456085600560F7
:4035C000C560656AEB6843B1636ADB6853F8260078B1026843F8262017E021220421204600F0B8FA636AE860DB68002BECD1002070BD012101FA06F56A1D9200204600F080
:40360000A9FA0028F3D04660856000230361C36070BD70B5446A06460D463CB91020FFF7ADFF7062446084600460C4603DB1736A6A68DB6853F82210296043F8225070BDBF
:403640002DE9F04106460C460D691F4601F1140E0023DEF80000013381B202FB0171000C0F0C02FB007089B201EB00419D424FEA10474EF8041BECDCD7B1A3689D4212DBB0
:40368000616830460131FFF78FFF8046226904F10C01023292000C30FEF786FB21463046FFF7B7FF444604EB850301355F6125612046BDE8F081030C1B0413B90004102397
:4036C00000E0002310F07F4F04BF0002083310F0704F04BF0001043310F0404F04BF80000233002803DB420003D5581C70471846704720207047036813F007020BD0D907AF
:4037000022D49A074BBF5B089B08036003604CBF01200220704799B209B91B0C102213F0FF0F04BF1B0A0832190704BF1B090432990704BF9B080232D90702D45B0805D019
:403740000132036010467047002070472020704710B50C460121FFF727FF01224461026110BD2DE9F74F14460A69236988469A42BEBF0B46A0461C46D8F81070D4F810905A
:40378000D8F80830D8F8041007EB09069E42C8BF0131FFF709FF00F114052B4605EB860C0022634502D243F8042BFAE704F1140208F1140102EB890301EB87070093009B65
:4037C0000192934257D9B2F800B0BBF1000F23D08946AE464FF0000859F8044BBEF800A0A3B20BFB03A34FEA144ADEF8004043444FEA14480BFB0A84F24604EB13449BB200
:4038000043EA04434F454FEA14484AF8043B01D9D646E1E7CEF80480019B0432B3F802A0BAF1000F21D02C4689462B684FF00008B9F800E0B4F802B09BB20AFB0EBEA34687
:40384000F04443EA08434BF8043B59F8043BB4F804E01B0C0AFB03E34F4503EB18434FEA134801D95C46E3E763600435A7E75CF8043D13B9013E002EF9DC066103B0BDE845
:40388000F08F00002DE9F843154612F0030206460F4607D0214C013A002354F82220FFF7CFFE0746AD1036D0746A3CB91020FFF765FE7062446084600460C460D6F8248082
:4038C000D8F808404CB940F271213046FFF740FF04460023C8F8080003604FF00008EB070AD5394622463046FFF73BFF814639463046FFF78EFE4F466D100CD0206808B192
:403900000446ECE7224621463046FFF72AFF2060C0F80080F4E73846BDE8F883404E00002DE9F0470C460746914626694FEA621A56444968A368751CAB4202DA01315B0003
:40394000FAE73846FFF730FE002380461A4600F11401534503DA41F823200133F9E72AEAEA73206901EB830319F01F0904F1140101EB800E14D0C9F1200C002208689A4613
:4039800000FA09F0024343F8042B51F8042B8E4522FA0CF2F2D8CAF8042042B1B51C06E0043B51F8042B8E4543F8042FF9D8013D3846C8F810502146FFF72BFE4046BDE850
:4039C000F08703690A6910B59B1A11D192001430143183180A4453F8044D52F8041D8C4202D007D3012010BD9842F4D3002010BD184610BD4FF0FF3010BD2DE9F8430C460B
:403A00000746114620461546FFF7DBFF061E08D131463846FFF7C8FD012303614661BDE8F883BCBF23462C4638466168BABF1D4601260026FFF7B8FD2B69C660266905F1A5
:403A4000140904F1140101EB860709EB830800F114054FF0000C51F8042B59F8044B93B29C44A3B2240CC3EB0C03C4EB124202EB23429BB24FEA224CC84543EA02428E46B8
:403A800045F8042BE7D8BE450ED25EF8041B8AB26244131403EB114392B242EA03424FEA234C45F8042BEEE755F8043D0BB9013EFAE70661BDE8F8832DE9F3411C460121D3
:403AC0009046089E099DFFF76FFDC4F31302C4F30A5407460CB142F480120192B8F1000F19D002A840F8088DFFF705FE009B48B1019AC0F1200102FA01F10B43C2407B61D0
:403B0000019200E07B61019B002B14BF02210121BB61396107E001A8FFF7EDFD019B01217B613961203034B1A4F2334404443460C0F1350009E0A0F2324007EB8103306006
:403B40001869FFF7B8FDC0EB41102860384602B0BDE8F08138B502FB01F4214600F054F8054618B122460021FEF729F9284638BD38B50546002944D051F8043C0C1F002B62
:403B8000B8BFE41800F043FC1E4A1368114613B96360146030E0A3420DD92268A018834201BF18685B681218226063600C6023E0A24203D813465A68002AF9D118681918E4
:403BC000A1420BD12168014458188242196013D110685268014419605A600DE002D90C232B6009E021686018824201BF106852680918216062605C602846BDE8384000F040
:403C000007BC38BD0499FF1F70B5CD1C25F0030508350C2D38BF0C25002D064601DBA94202D90C23336046E000F0F1FB234B1C681A462146A1B10B685B1B0ED40B2B03D981
:403C40000B60CC18CD501EE08C420BBF63684B681360636018BF0C4615E00C464968E9E7174C23681BB9304600F00CFA20602946304600F007FA431C18D0C41C24F00304D7
:403C8000A0420DD12560304600F0C2FB04F10B00231D20F00700C31A0ED05A42E25070BD211A304600F0EEF90130EBD10C233360304600F0ADFB002070BD00BF0499FF1F83
:403CC0000099FF1F2DE9F0478E6882469E420C46914698463ED88A8912F4906F3AD02568096902236F1A656905EB450595FBF3F57B1C43449D4238BF1D4653050FD52946B4
:403D0000FFF782FF064698B13A462169FEF74CF8A38923F4906343F08003A38113E02A4600F077FB064670B921695046FFF720FF0C23CAF80030A3894FF0FF3043F0400384
:403D4000A381BDE8F08726613E44266046466561ED1BA560464528BF464649463246206800F03AFBA36800209B1BA36023681E442660BDE8F08700002DE9F04F9DB00393B8
:403D80008B8980461C060D4616460DD50B695BB94021FFF739FF2860286118B90C23C8F80030CDE040236B610023099320238DF82930DFF89CB130238DF82A3037463C464D
:403DC00014F8013B1BB9B7EB060910D003E0252BF9D02746F3E74B46324629464046FFF771FF013000F0A780099B4B4409933B78002B00F0A08000234FF0FF3204930793A6
:403E0000059206938DF853301A930126052221784E48FFF7BBFB671C049B38B14B4A3C46801A06FA00F018430490EFE7D90644BF20228DF853201A0744BF2B228DF853207E
:403E400022782A2A03D0079A00210A200BE0039A111D12680391002A10DA524243F00200079204900BE027463B780134303B092B03D800FB02320121F5E701B107923B78E2
:403E80002E2B1ED17B782A2B0AD1039B02371A1D1B680392002BB8BF4FF0FF33059310E0002319460593781C0A2407463A780130303A092A03D804FB01210123F5E703B17D
:403EC0000591032239782248FFF760FB40B14023CBEB000003FA00F0049B013718430490397806221B487E1C8DF82810FFF74EFB88B1194B33B9039B073323F00703083353
:403F0000039314E003AB00932A46144B04A94046FDF7EEFF07E003AB00932A460F4B04A94046FEF79FFAB0F1FF3F824603D0099B5344099342E7AB895B0601D4099801E0BA
:403F40004FF0FF301DB0BDE8F08F00BF784E00007E4E0000824E0000F11E0000C53C0000838903F00903092B01D100F0B1B9002070470000F8B50C46054618B183690BB9AC
:403F8000FFF752FA3A4B9C4201D16C6808E0394B9C4201D1AC6803E0374B9C4208BFEC68B4F90C200023636093B29E065BD458071AD4D90605D4092342F040022B60A281FE
:403FC00051E01A070BD52146284600F057F9002849D1A389A06023F00803A381A061A38943F00403A38110E0616B71B104F14403994202D02846FFF7BBFD236C00206063EA
:40400000636013B1E36B2360F8BD23691BB92146284600F0A5F9B4F90C70BEB2B3070FD00123A381154B1649186806F00906FFF767FA092EA78103D12146284600F098F813
:404040002269666A22606369216A2846B047002860600BDCA38917BF002243F0200343F040036260A3814FF0FF30F8BD0020F8BD0C4D00002C4D00004C4D0000C44C00008F
:40408000613F000038B5064C0023054608462360FCF726FE431C02D1236803B12B6038BD1C99FF1F10B50C46B1F90E1000F0D8F90028ABBF636DA3891B1823F48053ACBF51
:4040C0006365A38110BD2DE9F0411F468B890546DB050C46164605D502230022B1F90E1000F008F9A389324623F48053A381B4F90E103B462846BDE8F04100F017B810B5CE
:404100000C46B1F90E1000F0F5F8431CA38915BF606523F4805343F48053A38118BFA38110BDB1F90E1000F013B8000038B5074C054608461146002222601A4600F0CEFC13
:40414000431C02D1236803B12B6038BD1C99FF1F38B5064C002305460846236000F096FC431C02D1236803B12B6038BD1C99FF1F8A892DE9F041054610070C4659D44B68C9
:40418000002B02DC0B6C002B17DDE66AAEB102F48052002392B22F682B600AB1606D15E0216A01232846B047411C0FD12B686BB11D2B01D0162B03D12F600020BDE8F081F0
:4041C000A38943F04003A381BDE8F081A3895A0705D56368C01A636B0BB1236CC01A00230246E66A216A2846B047431CA38906D129681D2939D8204ACA40D60735D5002272
:4042000062602269D904226004D5421C01D12B6803B96065616B2F600029CED004F14403994202D02846FFF7A3FC00206063BDE8F0810F69002FC0D093070E680CBF4B69E8
:404240000023C7EB06080F608B6002E00744C0EB0808B8F1000FB0DD43463A46216A2846A66AB0470028F1DCA38943F04003A3814FF0FF30BDE8F0810100402038B50B69CA
:4042800005460C46DBB118B183690BB9FFF7CCF80C4B9C4201D16C6808E00B4B9C4201D1AC6803E0094B9C4208BFEC68B4F90C302BB121462846BDE83840FFF759BF0020B0
:4042C00038BD00BF0C4D00002C4D00004C4D0000014620B9044B05491868FFF72DB9044B1868FFF7CBBF00BFC44C00007D4200004081FF1F38B5074C054608461146002278
:4043000022601A4600F0DAFB431C02D1236803B12B6038BD1C99FF1F70B50E46B1F90E1090B0002914461D4606DA00232B60B3891A060ED540230EE001AA00F0A3F800282F
:40434000F3DB029A02F47042A2F500535A425A412A604FF480630020236010B070BD00008B8973B59E0705460C4610D401AB6A46FFF7D2FF009906462846FFF745FC68B99A
:40438000B4F90C309A0522D443F00203A38104F14703236023610123636118E00D4BAB62A389206043F08003A381009B20616361019B4BB1B4F90E10284600F075F818B13B
:4043C000A38943F00103A381A0893043A08102B070BD00BFA9330000884210B501EB020301D8421E0BE09842FBD28118D21AD34204D013F8014D01F8014DF8E710BD99421F
:4044000004D011F8014B02F8014FF8E710BD70477047F8B5074615460E4621B91146BDE8F840FFF7F1BB1AB9FFF7A2FB2846F8BD00F04AF885420ED929463846FFF7E4FB6B
:40444000044650B131462A46FDF7AEFC31463846FFF78EFB01E03046F8BD2046F8BD000038B5074C054608461146002222601A4600F02CFB431C02D1236803B12B6038BD95
:404480001C99FF1F38B5074C0023054608461146236000F003FB431C02D1236803B12B6038BD00BF1C99FF1F38B5064C002305460846236000F0FAFA431C02D1236803B10F
:4044C0002B6038BD1C99FF1F51F8040C0028BEBF091851F8043CC0180438704770B54FF0FF0C4CF4E06C1CEA11541DBF1CEA135594EA0C0F95EA0C0F00F0DEF82C4481EA72
:40450000030621EA4C5123EA4C5350EA013518BF52EA033541F4801143F4801338D0A0FB02CE4FF00005E1FB02E506F00042E0FB03E54FF00006E1FB03569CF0000F18BF72
:404540004EF0010EA4F1FF04B6F5007F64F5407404D25FEA4E0E6D4146EB060642EAC62141EA55514FEAC52040EA5E504FEACE2EB4F1FD0C88BFBCF5E06F1ED8BEF1004FC1
:4045800008BF5FEA500E50F1000041EB045170BD06F0004646EA010140EA020081EA0301B4EB5C04C2BFD4EB0C0541EA045170BD41F480114FF0000E013C00F3AB8014F125
:4045C000360FDEBF002001F0004170BDC4F10004203C35DA0C341BDC04F11404C4F1200500FA05F320FA04F001FA05F240EA020001F0004221F0004110EBD37021FA04F622
:4046000042EB06015EEA430E08BF20EAD37070BDC4F10C04C4F1200500FA04F320FA05F001FA04F240EA020001F0004110EBD37041F100015EEA430E08BF20EAD37070BD33
:40464000C4F1200500FA05F24EEA020E20FA04F301FA05F243EA020321FA04F001F0004121FA04F220EA020000EBD3705EEA430E08BF20EAD37070BD94F0000F0FD101F028
:404680000046400041EB010111F4801F08BF013CF7D041EA060195F0000F18BF704703F00046520043EB030313F4801F08BF013DF7D043EA0603704794EA0C0F0CEA13556E
:4046C00018BF95EA0C0F0CD050EA410618BF52EA4306D1D181EA030101F000414FF0000070BD50EA410606BF1046194652EA430619D094EA0C0F02D150EA013613D195EA38
:404700000C0F05D152EA03361CBF104619460AD181EA030101F0004141F0FE4141F470014FF0000070BD41F0FE4141F4780170BD70B54FF0FF0C4CF4E06C1CEA11541DBFF8
:404740001CEA135594EA0C0F95EA0C0F00F0A7F8A4EB050481EA030E52EA03354FEA013100F088804FEA03334FF0805545EA131343EA12634FEA022245EA111545EA10654E
:404780004FEA00260EF000419D4208BF964244F1FD0404F5407402D25B084FEA3202B61A65EB03055B084FEA32024FF480104FF4002CB6EB020E75EB030E22BFB61A75468E
:4047C00040EA0C005B084FEA3202B6EB020E75EB030E22BFB61A754640EA5C005B084FEA3202B6EB020E75EB030E22BFB61A754640EA9C005B084FEA3202B6EB020E75EB9A
:40480000030E22BFB61A754640EADC0055EA060E18D04FEA051545EA16754FEA06164FEAC30343EA52734FEAC2025FEA1C1CC0D111F4801F0BD141EA00014FF000004FF02E
:40484000004CB6E711F4801F04BF01430020B4F1FD0C88BFBCF5E06F3FF6AFAEB5EB030C04BFB6EB020C5FEA500C50F1000041EB045170BD0EF0004E4EEA113114EB5C0423
:40488000C2BFD4EB0C0541EA045170BD41F480114FF0000E013C90E645EA060E8DE60CEA135594EA0C0F08BF95EA0C0F3FF43BAF94EA0C0F0AD150EA01347FF434AF95EA51
:4048C0000C0F7FF425AF104619462CE795EA0C0F06D152EA03353FF4FDAE1046194622E750EA410618BF52EA43067FF4C5AE50EA41047FF40DAF52EA43057FF4EBAE12E713
:404900004FF0FF3C06E000BF4FF0010C02E000BF4FF0010C4DF804CD4FEA410C7FEA6C5C4FEA430C18BF7FEA6C5C1BD001B050EA410C0CBF52EA430C91EA030F02BF90EA81
:40494000020F0020704710F1000F91EA030F58BF994208BF90422CBFD8176FEAE37040F0010070474FEA410C7FEA6C5C02D150EA013C07D14FEA430C7FEA6C5CD6D152EA44
:40498000033CD3D05DF8040B704700BF8446104662468C461946634600E000BF01B5FFF7B7FF002848BF10F1000F01BD4DF808EDFFF7F4FF0CBF012000205DF808FB00BF55
:4049C0004DF808EDFFF7EAFF34BF012000205DF808FB00BF4DF808EDFFF7E0FF94BF012000205DF808FB00BF4DF808EDFFF7CEFF94BF012000205DF808FB00BF4DF808EDB7
:404A0000FFF7C4FF34BF012000205DF808FB00BF4FEA410C7FEA6C5C02D150EA013C0AD14FEA430C7FEA6C5C02D152EA033C02D14FF0000070474FF0010070474FEA410253
:404A400012F5001215D211D56FF47873B3EB625212D94FEAC12343F0004343EA505311F0004F23FA02F018BF404270474FF00000704750EA013005D111F0004008BF6FF055
:404A8000004070474FF00000704700BF024B58221A604FF0FF3070471C99FF1F024B58221A604FF0FF3070471C99FF1F024B58221A600020704700BF1C99FF1F024B582267
:404AC0001A604FF0FF3070471C99FF1F024B58221A604FF0FF3070471C99FF1F024B58221A604FF0FF3070471C99FF1F00000000507265737320616E79206B657920746FF1
:404B000020737461727420636F6E76657273696F6E0A0D0072656420256C752000000000697220256C750D0A000000007265643D256C75200000000069723D256C75200035
:404B400048523D256C752000485276616C69643D256C75200000000053704F323D256C752000000053504F3256616C69643D256C75200A0D000000002900140100021401A1
:404B800029000000000000000000000000000000000000000000000000000000000000000000000000000000000000000000000000000000000000005F5F5F6060606161CD
:404BC000616161626262626263636363636363636464646464646464646464646464646464646464636363636363636362626262626261616161606060605F5F5F5E5E5E21
:404C00005D5D5D5C5C5C5B5B5A5A59595958585757565655555454535252515150504F4E4E4D4C4C4B4A4A494848474645454443424241403F3E3E3D3C3B3A393838373655
:404C40003534333231302F2E2D2C2B2A2928272625242322211F1E1D1C1B1A19171615141311100F0E0C0B0A0907060503020100C849004019000051004010002051004044
:404C80005000F0510040100000000140001000140140000480180140800300400140000A004C0140000200500140200060520040B8020048060000180140C0020048800065
:404CC00043000000E080FF1F494E4600696E66004E414E006E616E00300030313233343536373839414243444546003031323334353637383961626364656600496E666905
:404D00006E697479004E614E0000000000000000000000000000000000000000000000000000000000000000000000000000000000000000000000000000000000000000B2
:404D40000000000000000000000000000000000000000000000000000000000000000000000000000000000000000000504F534958002E0000000000000000000000F03F43
:404D8000000000000000244000000000000059400000000000408F40000000000088C34000000000006AF8400000000080842E4100000000D01263410000000084D797418E
:404DC0000000000065CDCD41000000205FA00242000000E876483742000000A2941A6D42000040E59C30A2420000901EC4BCD64200003426F56B0C430080E03779C3414377
:404E000000A0D8855734764300C84E676DC1AB43003D9160E458E143408CB5781DAF154450EFE2D6E41A4B4492D54D06CFF08044F64AE1C7022DB544B49DD9794378EA448F
:404E400005000000190000007D000000000000000080E03779C34143176E05B5B5B89346F5F93FE9034F384D321D30F94877825A3CBF737FDD4F1575232D302B2000686C79
:404E80004C0065666745464700000000F8B500BFF8BC08BC9E4670474D0000005D0D0000F8B500BFF8BC08BC9E46704729000000C04E0000C880FF1FB8000000A0170000E1
:404EC000000000002099FF1F0000E02EC05D00001800000000366E01000000000C4D00002C4D00004C4D000000000000000000000000000000000000C04C0000000000007C
:404F00000000000000000000000000000000000000000000000000000000000000000000000000000000000000000000000000000000000000000000E080FF1F724D000034
:404F40007D4E00007D4E00007D4E00007D4E00007D4E00007D4E00007D4E00007D4E00007D4E0000FFFFFFFFFFFFFFFFFFFFFFFFFFFF00000000000000000000000000001C
:404F800000000000000000000000000000000000000000000000000000000000000000000000000000000000000000000000000000000000000000000000000000000000F1
:404FC00000000000000000000000000000000000000000000000000000000000000000000000000000000000000000000000000000000000000000000000000000000000B1
:405000000000000000000000000000000000000000000000000000000000000000000000000000000000000000000000000000000000000000000000000000000000000070
:405040000000000000000000000000000000000000000000000000000000000000000000000000000000000000000000000000000000000000000000000000000000000030
:020000040003F7
:0200000480007A
:400000000365004001090140030B0140011501401418014039190140691A0140501B0140024201400143014005440140024501400246014001470140014801400249014073
:40004000084C01400A4D01400250014001510140887289388B0F96019601AE01E808EA01800886048801A101A202A401AA02AC01B002B204B401B501B608BE41BF10D418F6
:40008000D804D904DB04DF01010A0308052906020C410D020E0A0F2010221248168017141A011B151C101D211E0A1F102308250A260827012B402C412D202F1035413714AB
:4000C0003D803E823F284440452847404F20550156405B015C10600463026C226E046F08760277149601C0FEC2F0C47FCAF1CCF0CEF0D0F0D220D621D80C02030410060C07
:40010000070808100C090D800E100F131220152C16201743180C19711A111B06230C24142571270E281C2A02301F31C0330F3420353039223B083E103F104002450449FFCE
:400140004A074BFF4C404D204EF04F055008580459045A045F01604061A862406320814882358334844A85F8863488138A2C8D208E488FC293019501980399909A149B2CF8
:40018000A101A413A664A9F8AA40AF01B010B106B268B301B40FB518B7E0B908BA28BE01BF01C024C103C50CC6CEC70BC81DC9FFCAFFCBFFCEF0CF44D00CD401D804D904B9
:4001C000DA04DB04DF01E6C0EA40EB020060010203100440051006410720082009090F081108132014201604180419021D141E40204021102204232025482610274028206B
:4002000029042A012C412F083110320433103521361438803A043B043D803E06411044204640471048104B044F0850405240550457505D015E405F18633079017B40894874
:400240008A0292049404984199019B089D6A9F40A101A204A308A540A740C0FFC24EC466CAB3CCE6CEDAD0E4D6F0EA013E10CE209610101014207640C40CDE0498309E4090
:400280009830AE4098309610AA10EA8012101320162078107C209830C40EDE0310407220761088409A30AB20C408DC01DE04E20110011C0103C00000903000007800000070
:4002C0001F10200001000004020000E308C000001C1C23E10008230033180C003F44000003FF000004E700180C800000003C00C22C1F10380F0000C00000A2020000040023
:400300002604030001000CE024FFFFFF62A0F0410C00000000000211040404040000000100000000000040020010301000101012000000000000000000000000000000005B
:40034000B8004088B000B00000000000000B0B0000000000000000000000000000000000000000000000000000000000000000000000000000000000000000000000000087
:40038000000000000000000000000000000000000000000000000000000000000000000000000000000000000000000000000000000000000000000000000000000000003D
:4003C00000000000000000000000000000000000000000000000000000000000000000000000000000000000000000000000000000000000000000000000000000000000FD
:4004000000000000000000000000000000000000000000000000000000000000000000000000000000000000000000000000000000000000000000000000000000000000BC
:40044000000000000000000000000000000000000000000000000000000000000000000000000000000000000000000000000000000000000000000000000000000000007C
:0200000490006A
:0400000000004005B7
:0200000490105A
:04000000BC90ACAF55
:0200000490303A
:0200000054D6D4
:0200000490402A
:4000000000000000000000000000000000000000000000000000000000000000000000000000000000000000000000000000000000000000000000000000000000000000C0
:400040000000000000000000000000000000000000000000000000000000000000000000000000000000000000000000000000000000000000000000000000000000000080
:400080000000000000000000000000000000000000000000000000000000000000000000000000000000000000000000000000000000000000000000000000000000000040
:4000C0000000000000000000000000000000000000000000000000000000000000000000000000000000000000000000000000000000000000000000000000000000000000
:0200000490501A
:0C00000000012E16106900012E35653F2E
:00000001FF